{
  "contractName": "Refund",
  "abi": [
    {
      "constant": true,
      "inputs": [],
      "name": "owner",
      "outputs": [
        {
          "name": "",
          "type": "address"
        }
      ],
      "payable": false,
      "stateMutability": "view",
      "type": "function"
    },
    {
      "payable": true,
      "stateMutability": "payable",
      "type": "fallback"
    },
    {
      "anonymous": false,
      "inputs": [
        {
          "indexed": false,
          "name": "sender",
          "type": "address"
        },
        {
          "indexed": false,
          "name": "amount",
          "type": "uint256"
        }
      ],
      "name": "LogReceivedFunds",
      "type": "event"
    },
    {
      "anonymous": false,
      "inputs": [
        {
          "indexed": false,
          "name": "recipient",
          "type": "address"
        },
        {
          "indexed": false,
          "name": "amount",
          "type": "uint256"
        }
      ],
      "name": "LogReturnedFunds",
      "type": "event"
    },
    {
      "constant": true,
      "inputs": [],
      "name": "getBalance",
      "outputs": [
        {
          "name": "",
          "type": "uint256"
        }
      ],
      "payable": false,
      "stateMutability": "view",
      "type": "function"
    },
    {
      "constant": false,
      "inputs": [],
      "name": "refundBalance",
      "outputs": [],
      "payable": false,
      "stateMutability": "nonpayable",
      "type": "function"
    },
    {
      "constant": false,
      "inputs": [
        {
          "name": "amount",
          "type": "uint256"
        },
        {
          "name": "addr",
          "type": "address"
        }
      ],
      "name": "withdraw",
      "outputs": [],
      "payable": false,
      "stateMutability": "nonpayable",
      "type": "function"
    }
  ],
  "bytecode": "0x608060405260008054600160a060020a031916331790556102e1806100256000396000f3006080604052600436106100605763ffffffff7c0100000000000000000000000000000000000000000000000000000000600035041662f714ce811461009c57806312065fe0146100cf5780638da5cb5b146100f6578063cf0deba914610134575b6040805133815234602082015281517f81d2c188629cc4a1c694d285150cb5fa3dde3157a2684460d3ac7a1e331f6164929181900390910190a1005b3480156100a857600080fd5b506100cd60043573ffffffffffffffffffffffffffffffffffffffff60243516610149565b005b3480156100db57600080fd5b506100e46101ff565b60408051918252519081900360200190f35b34801561010257600080fd5b5061010b610204565b6040805173ffffffffffffffffffffffffffffffffffffffff9092168252519081900360200190f35b34801561014057600080fd5b506100cd610220565b6000805473ffffffffffffffffffffffffffffffffffffffff16331461016e57600080fd5b50604051670de0b6b3a764000083029073ffffffffffffffffffffffffffffffffffffffff83169082156108fc029083906000818181858888f193505050501580156101be573d6000803e3d6000fd5b50604080513381526020810183905281517fe0e5873eb9d996d2ab087b071a9a50522121c02b43308c8728c06739f52b3f87929181900390910190a1505050565b303190565b60005473ffffffffffffffffffffffffffffffffffffffff1681565b6000805473ffffffffffffffffffffffffffffffffffffffff16331461024557600080fd5b50604051303190339082156108fc029083906000818181858888f19350505050158015610276573d6000803e3d6000fd5b50604080513381526020810183905281517fe0e5873eb9d996d2ab087b071a9a50522121c02b43308c8728c06739f52b3f87929181900390910190a1505600a165627a7a7230582029bb5ca6e95a0c0c4114e2558aa1fd96f82aebc10056e1169cc1c6895206fbad0029",
  "source": "pragma solidity ^0.4.22;\r\nimport  './Ownable.sol';\r\ncontract Refund is Ownable{\r\n    event LogReceivedFunds(address sender, uint amount);\r\n    event LogReturnedFunds(address recipient, uint amount);\r\n\r\n    function() public payable {\r\n        emit LogReceivedFunds(msg.sender, msg.value);\r\n    }\r\n \r\n    function getBalance() public view returns (uint256) {\r\n        return address(this).balance;\r\n    }\r\n    //退款\r\n    function refundBalance() public onlyOwner {\r\n        uint256 balance = address(this).balance;\r\n        msg.sender.transfer(balance);\r\n        emit LogReturnedFunds(msg.sender, balance);\r\n    }\r\n    function withdraw(uint amount,address addr) public onlyOwner{\r\n        uint256 balance=amount*1 ether;\r\n        addr.transfer(balance);\r\n        emit LogReturnedFunds(msg.sender, balance);\r\n    }\r\n}\r\n",
  "sourcePath": "C:\\Users\\user\\Desktop\\blockchain\\contract\\contracts\\Refund.sol",
  "compiler": {
    "name": "solc",
    "version": "0.4.24+commit.e67f0147.Emscripten.clang"
  },
  "schemaVersion": "2.0.1",
  "updatedAt": "2018-11-05T12:14:46.060Z"
}