{
  "contractName": "Refund",
  "abi": [
    {
      "constant": true,
      "inputs": [],
      "name": "owner",
      "outputs": [
        {
          "name": "",
          "type": "address"
        }
      ],
      "payable": false,
      "stateMutability": "view",
      "type": "function"
    },
    {
      "constant": true,
      "inputs": [
        {
          "name": "",
          "type": "uint256"
        }
      ],
      "name": "recipte",
      "outputs": [
        {
          "name": "address_to",
          "type": "address"
        },
        {
          "name": "adress_from",
          "type": "address"
        },
        {
          "name": "value",
          "type": "uint256"
        }
      ],
      "payable": false,
      "stateMutability": "view",
      "type": "function"
    },
    {
      "payable": true,
      "stateMutability": "payable",
      "type": "fallback"
    },
    {
      "anonymous": false,
      "inputs": [
        {
          "indexed": false,
          "name": "sender",
          "type": "address"
        },
        {
          "indexed": false,
          "name": "amount",
          "type": "uint256"
        }
      ],
      "name": "LogReceivedFunds",
      "type": "event"
    },
    {
      "anonymous": false,
      "inputs": [
        {
          "indexed": false,
          "name": "recipient",
          "type": "address"
        },
        {
          "indexed": false,
          "name": "amount",
          "type": "uint256"
        }
      ],
      "name": "LogReturnedFunds",
      "type": "event"
    },
    {
      "constant": true,
      "inputs": [],
      "name": "getBalance",
      "outputs": [
        {
          "name": "",
          "type": "uint256"
        }
      ],
      "payable": false,
      "stateMutability": "view",
      "type": "function"
    },
    {
      "constant": false,
      "inputs": [],
      "name": "refundBalance",
      "outputs": [],
      "payable": false,
      "stateMutability": "nonpayable",
      "type": "function"
    },
    {
      "constant": false,
      "inputs": [
        {
          "name": "amount",
          "type": "uint256"
        },
        {
          "name": "addr",
          "type": "address"
        }
      ],
      "name": "withdraw",
      "outputs": [],
      "payable": false,
      "stateMutability": "nonpayable",
      "type": "function"
    }
  ],
  "bytecode": "0x608060405260008054600160a060020a031916331790556103f7806100256000396000f30060806040526004361061006b5763ffffffff7c0100000000000000000000000000000000000000000000000000000000600035041662f714ce811461018057806312065fe0146101a65780638da5cb5b146101cd578063cf0deba9146101fe578063f15a883714610213575b6040805160608101825230815233602080830182815234848601818152600180548082018255600091909152955160039096027fb10e2d527612073b26eecdfd717e6a320cf44b4afac2b0732d9fcbe2b7fa0cf681018054600160a060020a0398891673ffffffffffffffffffffffffffffffffffffffff199182161790915593517fb10e2d527612073b26eecdfd717e6a320cf44b4afac2b0732d9fcbe2b7fa0cf7820180549190981694169390931790955593517fb10e2d527612073b26eecdfd717e6a320cf44b4afac2b0732d9fcbe2b7fa0cf890910155835191825281019190915281517f81d2c188629cc4a1c694d285150cb5fa3dde3157a2684460d3ac7a1e331f6164929181900390910190a1005b34801561018c57600080fd5b506101a4600435600160a060020a0360243516610255565b005b3480156101b257600080fd5b506101bb6102f1565b60408051918252519081900360200190f35b3480156101d957600080fd5b506101e26102f6565b60408051600160a060020a039092168252519081900360200190f35b34801561020a57600080fd5b506101a4610305565b34801561021f57600080fd5b5061022b60043561038d565b60408051600160a060020a0394851681529290931660208301528183015290519081900360600190f35b60008054600160a060020a0316331461026d57600080fd5b50604051670de0b6b3a7640000830290600160a060020a0383169082156108fc029083906000818181858888f193505050501580156102b0573d6000803e3d6000fd5b50604080513381526020810183905281517fe0e5873eb9d996d2ab087b071a9a50522121c02b43308c8728c06739f52b3f87929181900390910190a1505050565b303190565b600054600160a060020a031681565b60008054600160a060020a0316331461031d57600080fd5b50604051303190339082156108fc029083906000818181858888f1935050505015801561034e573d6000803e3d6000fd5b50604080513381526020810183905281517fe0e5873eb9d996d2ab087b071a9a50522121c02b43308c8728c06739f52b3f87929181900390910190a150565b600180548290811061039b57fe5b6000918252602090912060039091020180546001820154600290920154600160a060020a039182169350911690835600a165627a7a723058207c681049c62a4c24e34be9936159480b902d2f46b3cb0a9b2ced964123b0c6400029",
  "source": "pragma solidity ^0.4.22;\nimport  './Ownable.sol';\ncontract Refund is Ownable{\n    event LogReceivedFunds(address sender, uint amount);\n    event LogReturnedFunds(address recipient, uint amount);\n    Recipte[] public recipte;\n    \n    struct Recipte{\n        address address_to;\n        address adress_from;\n        uint value;\n    }\n    function() public payable {\n        recipte.push(Recipte(address(this),msg.sender,msg.value));\n        emit LogReceivedFunds(msg.sender, msg.value);\n    }\n    function getBalance() public view returns (uint256) {\n        return address(this).balance;\n    }\n    //退款\n    function refundBalance() public onlyOwner {\n        uint256 balance = address(this).balance;\n        msg.sender.transfer(balance);\n        emit LogReturnedFunds(msg.sender, balance);\n    }\n    function withdraw(uint amount,address addr) public onlyOwner{\n        uint256 balance=amount*1 ether;\n        addr.transfer(balance);\n        emit LogReturnedFunds(msg.sender, balance);\n    }\n}\n",
  "sourcePath": "/Users/tony/blockchain/case/contract/contracts/Refund.sol",
  "compiler": {
    "name": "solc",
    "version": "0.4.24+commit.e67f0147.Emscripten.clang"
  },
  "schemaVersion": "2.0.1",
  "updatedAt": "2018-11-06T02:58:55.901Z"
}