{
  "contractName": "Refund",
  "abi": [
    {
      "constant": true,
      "inputs": [
        {
          "name": "",
          "type": "uint256"
        }
      ],
      "name": "tree",
      "outputs": [
        {
          "name": "RootHash",
          "type": "bytes32"
        }
      ],
      "payable": false,
      "stateMutability": "view",
      "type": "function"
    },
    {
      "constant": true,
      "inputs": [],
      "name": "RecipteNumber",
      "outputs": [
        {
          "name": "",
          "type": "uint256"
        }
      ],
      "payable": false,
      "stateMutability": "view",
      "type": "function"
    },
    {
      "constant": true,
      "inputs": [],
      "name": "owner",
      "outputs": [
        {
          "name": "",
          "type": "address"
        }
      ],
      "payable": false,
      "stateMutability": "view",
      "type": "function"
    },
    {
      "constant": true,
      "inputs": [],
      "name": "TreeNumber",
      "outputs": [
        {
          "name": "",
          "type": "uint256"
        }
      ],
      "payable": false,
      "stateMutability": "view",
      "type": "function"
    },
    {
      "constant": true,
      "inputs": [
        {
          "name": "",
          "type": "uint256"
        }
      ],
      "name": "recipte",
      "outputs": [
        {
          "name": "address_to",
          "type": "address"
        },
        {
          "name": "adress_from",
          "type": "address"
        },
        {
          "name": "value",
          "type": "uint256"
        }
      ],
      "payable": false,
      "stateMutability": "view",
      "type": "function"
    },
    {
      "payable": true,
      "stateMutability": "payable",
      "type": "fallback"
    },
    {
      "anonymous": false,
      "inputs": [
        {
          "indexed": false,
          "name": "sender",
          "type": "address"
        },
        {
          "indexed": false,
          "name": "amount",
          "type": "uint256"
        }
      ],
      "name": "LogReceivedFunds",
      "type": "event"
    },
    {
      "anonymous": false,
      "inputs": [
        {
          "indexed": false,
          "name": "recipient",
          "type": "address"
        },
        {
          "indexed": false,
          "name": "amount",
          "type": "uint256"
        }
      ],
      "name": "LogReturnedFunds",
      "type": "event"
    },
    {
      "constant": true,
      "inputs": [],
      "name": "getBalance",
      "outputs": [
        {
          "name": "",
          "type": "uint256"
        }
      ],
      "payable": false,
      "stateMutability": "view",
      "type": "function"
    },
    {
      "constant": false,
      "inputs": [],
      "name": "refundBalance",
      "outputs": [],
      "payable": false,
      "stateMutability": "nonpayable",
      "type": "function"
    },
    {
      "constant": false,
      "inputs": [
        {
          "name": "amount",
          "type": "uint256"
        },
        {
          "name": "addr",
          "type": "address"
        }
      ],
      "name": "withdraw",
      "outputs": [],
      "payable": false,
      "stateMutability": "nonpayable",
      "type": "function"
    },
    {
      "constant": false,
      "inputs": [
        {
          "name": "_roothash",
          "type": "bytes32"
        }
      ],
      "name": "setTree",
      "outputs": [
        {
          "name": "",
          "type": "bool"
        }
      ],
      "payable": false,
      "stateMutability": "nonpayable",
      "type": "function"
    }
  ],
  "bytecode": "0x608060405260008054600160a060020a03191633179055610485806100256000396000f3006080604052600436106100975763ffffffff7c0100000000000000000000000000000000000000000000000000000000600035041662f714ce811461014957806312065fe01461016f578063313529361461019657806354c7be31146101ae578063658b6ff9146101c35780638da5cb5b146101ef578063b55b5cc014610220578063cf0deba914610235578063f15a88371461024a575b60408051606081018252308152336020808301828152348486018181526001805480820182556000908152600386528890209651875473ffffffffffffffffffffffffffffffffffffffff19908116600160a060020a03928316178955945191880180549095169116179092559051600290940193909355835191825281019190915281517f81d2c188629cc4a1c694d285150cb5fa3dde3157a2684460d3ac7a1e331f6164929181900390910190a1005b34801561015557600080fd5b5061016d600435600160a060020a036024351661028c565b005b34801561017b57600080fd5b50610184610328565b60408051918252519081900360200190f35b3480156101a257600080fd5b5061018460043561032d565b3480156101ba57600080fd5b5061018461033f565b3480156101cf57600080fd5b506101db600435610345565b604080519115158252519081900360200190f35b3480156101fb57600080fd5b5061020461038e565b60408051600160a060020a039092168252519081900360200190f35b34801561022c57600080fd5b5061018461039d565b34801561024157600080fd5b5061016d6103a3565b34801561025657600080fd5b5061026260043561042b565b60408051600160a060020a0394851681529290931660208301528183015290519081900360600190f35b60008054600160a060020a031633146102a457600080fd5b50604051670de0b6b3a7640000830290600160a060020a0383169082156108fc029083906000818181858888f193505050501580156102e7573d6000803e3d6000fd5b50604080513381526020810183905281517fe0e5873eb9d996d2ab087b071a9a50522121c02b43308c8728c06739f52b3f87929181900390910190a1505050565b303190565b60046020526000908152604090205481565b60015481565b60008054600160a060020a0316331461035d57600080fd5b5060408051602081810183528382526002805460018082019092556000908152600490925292902090519055919050565b600054600160a060020a031681565b60025481565b60008054600160a060020a031633146103bb57600080fd5b50604051303190339082156108fc029083906000818181858888f193505050501580156103ec573d6000803e3d6000fd5b50604080513381526020810183905281517fe0e5873eb9d996d2ab087b071a9a50522121c02b43308c8728c06739f52b3f87929181900390910190a150565b600360205260009081526040902080546001820154600290920154600160a060020a039182169290911690835600a165627a7a72305820cc5cc58294aae186f6e4a8b6ee4c3922852f17b54b8341b78a08c548e862b4d80029",
  "source": "pragma solidity ^0.4.22;\r\nimport  './Ownable.sol';\r\ncontract Refund is Ownable{\r\n    event LogReceivedFunds(address sender, uint amount);\r\n    event LogReturnedFunds(address recipient, uint amount);\r\n    uint256 public RecipteNumber;\r\n    uint256 public TreeNumber;\r\n    mapping (uint256 =>Recipte) public recipte;\r\n    mapping(uint256=>Tree) public tree;\r\n    struct Recipte{\r\n        address address_to;\r\n        address adress_from;\r\n        uint value;\r\n    }\r\n    struct Tree{\r\n        bytes32 RootHash;\r\n    }\r\n    function() public payable {\r\n        recipte[RecipteNumber++]=Recipte(address(this),msg.sender,msg.value);\r\n        emit LogReceivedFunds(msg.sender, msg.value);\r\n    }\r\n    function getBalance() public view returns (uint256) {\r\n        return address(this).balance;\r\n    }\r\n    //退款\r\n    function refundBalance() public onlyOwner {\r\n        uint256 balance = address(this).balance;\r\n        msg.sender.transfer(balance);\r\n        emit LogReturnedFunds(msg.sender, balance);\r\n    }\r\n    function withdraw(uint amount,address addr) public onlyOwner{\r\n        uint256 balance=amount*1 ether;\r\n        addr.transfer(balance);\r\n        emit LogReturnedFunds(msg.sender, balance);\r\n    }\r\n    function setTree(bytes32 _roothash) public onlyOwner returns(bool) {\r\n        tree[TreeNumber++]=Tree(_roothash);\r\n        return true;\r\n    }\r\n}\r\n",
  "sourcePath": "C:\\Users\\user\\Desktop\\blockchain\\contract\\contracts\\Refund.sol",
  "compiler": {
    "name": "solc",
    "version": "0.4.24+commit.e67f0147.Emscripten.clang"
  },
  "schemaVersion": "2.0.1",
  "updatedAt": "2018-11-18T05:51:55.067Z"
}