{
  "contractName": "Refund",
  "abi": [
    {
      "constant": true,
      "inputs": [],
      "name": "owner",
      "outputs": [
        {
          "name": "",
          "type": "address"
        }
      ],
      "payable": false,
      "stateMutability": "view",
      "type": "function"
    },
    {
      "payable": true,
      "stateMutability": "payable",
      "type": "fallback"
    },
    {
      "anonymous": false,
      "inputs": [
        {
          "indexed": false,
          "name": "sender",
          "type": "address"
        },
        {
          "indexed": false,
          "name": "amount",
          "type": "uint256"
        }
      ],
      "name": "LogReceivedFunds",
      "type": "event"
    },
    {
      "anonymous": false,
      "inputs": [
        {
          "indexed": false,
          "name": "recipient",
          "type": "address"
        },
        {
          "indexed": false,
          "name": "amount",
          "type": "uint256"
        }
      ],
      "name": "LogReturnedFunds",
      "type": "event"
    },
    {
      "constant": true,
      "inputs": [],
      "name": "getBalance",
      "outputs": [
        {
          "name": "",
          "type": "uint256"
        }
      ],
      "payable": false,
      "stateMutability": "view",
      "type": "function"
    },
    {
      "constant": false,
      "inputs": [],
      "name": "refundBalance",
      "outputs": [],
      "payable": false,
      "stateMutability": "nonpayable",
      "type": "function"
    },
    {
      "constant": false,
      "inputs": [
        {
          "name": "amount",
          "type": "uint256"
        }
      ],
      "name": "withdraw",
      "outputs": [],
      "payable": false,
      "stateMutability": "nonpayable",
      "type": "function"
    }
  ],
  "bytecode": "0x608060405260008054600160a060020a031916331790556102b2806100256000396000f3006080604052600436106100615763ffffffff7c010000000000000000000000000000000000000000000000000000000060003504166312065fe0811461009d5780632e1a7d4d146100c45780638da5cb5b146100de578063cf0deba91461011c575b6040805133815234602082015281517f81d2c188629cc4a1c694d285150cb5fa3dde3157a2684460d3ac7a1e331f6164929181900390910190a1005b3480156100a957600080fd5b506100b2610131565b60408051918252519081900360200190f35b3480156100d057600080fd5b506100dc600435610136565b005b3480156100ea57600080fd5b506100f36101d5565b6040805173ffffffffffffffffffffffffffffffffffffffff9092168252519081900360200190f35b34801561012857600080fd5b506100dc6101f1565b303190565b6000805473ffffffffffffffffffffffffffffffffffffffff16331461015b57600080fd5b50604051670de0b6b3a7640000820290339082156108fc029083906000818181858888f19350505050158015610195573d6000803e3d6000fd5b50604080513381526020810183905281517fe0e5873eb9d996d2ab087b071a9a50522121c02b43308c8728c06739f52b3f87929181900390910190a15050565b60005473ffffffffffffffffffffffffffffffffffffffff1681565b6000805473ffffffffffffffffffffffffffffffffffffffff16331461021657600080fd5b50604051303190339082156108fc029083906000818181858888f19350505050158015610247573d6000803e3d6000fd5b50604080513381526020810183905281517fe0e5873eb9d996d2ab087b071a9a50522121c02b43308c8728c06739f52b3f87929181900390910190a1505600a165627a7a7230582094716365d9c395adf44f36d4cfe1c1b4df596cd8e0ad4e40b631d3f1a56fe7cd0029",
  "source": "pragma solidity ^0.4.22;\r\nimport  './Ownable.sol';\r\ncontract Refund is Ownable{\r\n    event LogReceivedFunds(address sender, uint amount);\r\n    event LogReturnedFunds(address recipient, uint amount);\r\n\r\n    function() public payable {\r\n        emit LogReceivedFunds(msg.sender, msg.value);\r\n    }\r\n \r\n    function getBalance() public view returns (uint256) {\r\n        return address(this).balance;\r\n    }\r\n    //退款\r\n    function refundBalance() public onlyOwner {\r\n        uint256 balance = address(this).balance;\r\n        msg.sender.transfer(balance);\r\n        emit LogReturnedFunds(msg.sender, balance);\r\n    }\r\n    function withdraw(uint amount) public onlyOwner{\r\n        uint256 balance=amount*1 ether;\r\n        msg.sender.transfer(balance);\r\n        emit LogReturnedFunds(msg.sender, balance);\r\n    }\r\n}\r\n",
  "sourcePath": "C:\\Users\\user\\Desktop\\blockchain\\contract\\contracts\\Refund.sol",
  "compiler": {
    "name": "solc",
    "version": "0.4.24+commit.e67f0147.Emscripten.clang"
  },
  "schemaVersion": "2.0.1",
  "updatedAt": "2018-11-05T12:07:52.791Z"
}